:100000000EC028C027C026C026C024C023C022C0DE
:1000100021C020C01FC01EC01DC01CC01BC0112499
:100020001FBECFE5D2E0DEBFCDBF11E0A0E6B0E05D
:10003000EAE2F1E002C005900D92A036B107D9F7CF
:1000400021E0A0E6B1E001C01D92A336B207E1F7BE
:100050001AD069C0D5CF1F920F920FB60F921124FC
:100060008F939F9380916101909162018FBD8091E8
:1000700060018F5F809360019F918F910F900FBE01
:100080000F901F90189591E097BB87B3897F87BB2E
:1000900088B3866088BB83E88ABD93BF90B79F7C96
:1000A00090BF9CB59F7C9CBD90B7917F90BF90B74F
:1000B000916090BF99B7946099BF78941FBC3E9AA5
:1000C00092EA97B986B986B92FEF4FEF50E0369A8A
:1000D00085B190E0909362018093610196B3892F7E
:1000E000827091FD82E0B2998F5FE0916001823071
:1000F000A1F0833059F0813031F0F0E0E05AFF4F49
:10010000808189BDE4CFE7FD03C0EE0FE9BDDFCFFD
:10011000CA018E1B9109880FF4CFE7FD02C029BDEB
:0A012000D6CF19BCD4CFF894FFCF5E
:10012A00808386898C8F9295989B9EA2A5A7AAAD5B
:10013A00B0B3B6B9BCBEC1C4C6C9CBCED0D3D5D76D
:10014A00DADCDEE0E2E4E6E8EAEBEDEEF0F1F3F425
:10015A00F5F6F8F9FAFAFBFCFDFDFEFEFEFFFFFFDD
:10016A00FFFFFFFFFEFEFEFDFDFCFBFAFAF9F8F6C3
:10017A00F5F4F3F1F0EEEDEBEAE8E6E4E2E0DEDCDA
:10018A00DAD7D5D3D0CECBC9C6C4C1BEBCB9B6B3F3
:10019A00B0ADAAA7A5A29E9B9895928F8C898683BB
:1001AA00807C797673706D6A6764615D5A585552BE
:1001BA004F4C494643413E3B393634312F2C2A288D
:1001CA002523211F1D1B1917151412110F0E0C0BB5
:1001DA000A090706050504030202010101000000DD
:1001EA0000000000010101020203040505060709D7
:1001FA000A0B0C0E0F1112141517191B1D1F2123A0
:10020A0025282A2C2F313436393B3E414346494C66
:10021A004F5255585A5D6164676A6D707376797C7E
:00000001FF
