:100000000EC015C014C013C012C011C010C00FC064
:100010000EC00DC00CC00BC00AC009C008C011241E
:100020001FBECFE5D2E0DEBFCDBF02D027C0E8CFF4
:1000300081E087BB93E89ABD83BF9FE78FEF19BC30
:100040002FEF39E648E1215030404040E1F700C051
:10005000000099BD2FEF39E648E121503040404083
:10006000E1F700C0000089BD2FEF39E648E12150DB
:1000700030404040E1F700C00000E1CFF894FFCFEE
:00000001FF
